{
  "contractName": "Database",
  "abi": [
    {
      "constant": true,
      "inputs": [
        {
          "name": "",
          "type": "address"
        }
      ],
      "name": "addressToHandler",
      "outputs": [
        {
          "name": "_name",
          "type": "string"
        },
        {
          "name": "_additionalInformation",
          "type": "string"
        }
      ],
      "payable": false,
      "stateMutability": "view",
      "type": "function"
    },
    {
      "constant": true,
      "inputs": [
        {
          "name": "",
          "type": "uint256"
        }
      ],
      "name": "products",
      "outputs": [
        {
          "name": "",
          "type": "address"
        }
      ],
      "payable": false,
      "stateMutability": "view",
      "type": "function"
    },
    {
      "constant": true,
      "inputs": [],
      "name": "owner",
      "outputs": [
        {
          "name": "",
          "type": "address"
        }
      ],
      "payable": false,
      "stateMutability": "view",
      "type": "function"
    },
    {
      "constant": false,
      "inputs": [
        {
          "name": "newOwner",
          "type": "address"
        }
      ],
      "name": "transferOwnership",
      "outputs": [],
      "payable": false,
      "stateMutability": "nonpayable",
      "type": "function"
    },
    {
      "inputs": [],
      "payable": false,
      "stateMutability": "nonpayable",
      "type": "constructor"
    },
    {
      "payable": false,
      "stateMutability": "nonpayable",
      "type": "fallback"
    },
    {
      "constant": false,
      "inputs": [
        {
          "name": "_address",
          "type": "address"
        },
        {
          "name": "_name",
          "type": "string"
        },
        {
          "name": "_additionalInformation",
          "type": "string"
        }
      ],
      "name": "addHandler",
      "outputs": [],
      "payable": false,
      "stateMutability": "nonpayable",
      "type": "function"
    },
    {
      "constant": false,
      "inputs": [
        {
          "name": "productAddress",
          "type": "address"
        }
      ],
      "name": "storeProductReference",
      "outputs": [],
      "payable": false,
      "stateMutability": "nonpayable",
      "type": "function"
    }
  ],
  "bytecode": "0x6060604052341561000f57600080fd5b336000806101000a81548173ffffffffffffffffffffffffffffffffffffffff021916908373ffffffffffffffffffffffffffffffffffffffff1602179055506107828061005e6000396000f300606060405260043610610078576000357c0100000000000000000000000000000000000000000000000000000000900463ffffffff168063590b2d9b146100885780637acc0b20146101e0578063805593db146102435780638da5cb5b1461027c578063caa63742146102d1578063f2fde38b14610390575b341561008357600080fd5b600080fd5b341561009357600080fd5b6100bf600480803573ffffffffffffffffffffffffffffffffffffffff169060200190919050506103c9565b60405180806020018060200183810383528581815460018160011615610100020316600290048152602001915080546001816001161561010002031660029004801561014c5780601f106101215761010080835404028352916020019161014c565b820191906000526020600020905b81548152906001019060200180831161012f57829003601f168201915b50508381038252848181546001816001161561010002031660029004815260200191508054600181600116156101000203166002900480156101cf5780601f106101a4576101008083540402835291602001916101cf565b820191906000526020600020905b8154815290600101906020018083116101b257829003601f168201915b505094505050505060405180910390f35b34156101eb57600080fd5b61020160048080359060200190919050506103eb565b604051808273ffffffffffffffffffffffffffffffffffffffff1673ffffffffffffffffffffffffffffffffffffffff16815260200191505060405180910390f35b341561024e57600080fd5b61027a600480803573ffffffffffffffffffffffffffffffffffffffff1690602001909190505061042a565b005b341561028757600080fd5b61028f610490565b604051808273ffffffffffffffffffffffffffffffffffffffff1673ffffffffffffffffffffffffffffffffffffffff16815260200191505060405180910390f35b34156102dc57600080fd5b61038e600480803573ffffffffffffffffffffffffffffffffffffffff1690602001909190803590602001908201803590602001908080601f0160208091040260200160405190810160405280939291908181526020018383808284378201915050505050509190803590602001908201803590602001908080601f016020809104026020016040519081016040528093929190818152602001838380828437820191505050505050919050506104b5565b005b341561039b57600080fd5b6103c7600480803573ffffffffffffffffffffffffffffffffffffffff169060200190919050506105ad565b005b6002602052806000526040600020600091509050806000019080600101905082565b6001818154811015156103fa57fe5b90600052602060002090016000915054906101000a900473ffffffffffffffffffffffffffffffffffffffff1681565b6001805480600101828161043e919061064b565b9160005260206000209001600083909190916101000a81548173ffffffffffffffffffffffffffffffffffffffff021916908373ffffffffffffffffffffffffffffffffffffffff1602179055505050565b6000809054906101000a900473ffffffffffffffffffffffffffffffffffffffff1681565b6104bd610677565b6000809054906101000a900473ffffffffffffffffffffffffffffffffffffffff1673ffffffffffffffffffffffffffffffffffffffff163373ffffffffffffffffffffffffffffffffffffffff1614151561051857600080fd5b82816000018190525081816020018190525080600260008673ffffffffffffffffffffffffffffffffffffffff1673ffffffffffffffffffffffffffffffffffffffff168152602001908152602001600020600082015181600001908051906020019061058692919061069d565b5060208201518160010190805190602001906105a392919061069d565b5090505050505050565b6000809054906101000a900473ffffffffffffffffffffffffffffffffffffffff1673ffffffffffffffffffffffffffffffffffffffff163373ffffffffffffffffffffffffffffffffffffffff1614151561060857600080fd5b806000806101000a81548173ffffffffffffffffffffffffffffffffffffffff021916908373ffffffffffffffffffffffffffffffffffffffff16021790555050565b81548183558181151161067257818360005260206000209182019101610671919061071d565b5b505050565b604080519081016040528061068a610742565b8152602001610697610742565b81525090565b828054600181600116156101000203166002900490600052602060002090601f016020900481019282601f106106de57805160ff191683800117855561070c565b8280016001018555821561070c579182015b8281111561070b5782518255916020019190600101906106f0565b5b509050610719919061071d565b5090565b61073f91905b8082111561073b576000816000905550600101610723565b5090565b90565b6020604051908101604052806000815250905600a165627a7a72305820401ebde7ad52d587eddba448e11e3fb80ae8d604ca47b3a7da2e5d764c155d5f0029",
  "source": "pragma solidity ^0.4.7;\n\nimport \"./owned.sol\";\n\n/*\n  Copyright 2017, David Riudor\n\n  This program is free software: you can redistribute it and/or modify\n  it under the terms of the GNU General Public License as published by\n  the Free Software Foundation, either version 3 of the License, or\n  (at your option) any later version.\n\n  This program is distributed in the hope that it will be useful,\n  but WITHOUT ANY WARRANTY; without even the implied warranty of\n  MERCHANTABILITY or FITNESS FOR A PARTICULAR PURPOSE.  See the\n  GNU General Public License for more details.\n\n  You should have received a copy of the GNU General Public License\n  along with this program.  If not, see <http://www.gnu.org/licenses/>.\n*/\n\n/* @title Database Contract\n  @author David Riudor\n  @dev This contract represents the database to store all handlers and products of the\n  TODO put name of platform ** platform.  */\n\ncontract Database is owned {\n  // @dev addresses of the Products referenced in this database\n  address[] public products;\n\n  // @dev struct which represents a Handler for the products stored in the database.\n  struct Handler {\n    // @dev indicates the name of a Handler.\n    string _name;\n    // @dev Additional information about the Handler, generally as a JSON object\n    string _additionalInformation;\n  }\n\n  // @dev Relates an address with a Handler record.\n  mapping(address => Handler) public addressToHandler;\n\n  /* @notice Constructor to create a Database */\n  function Database() {}\n\n  function () {\n    // If anyone wants to send Ether to this contract, the transaction gets rejected\n    throw;\n  }\n\n  /* @notice Function to add a Handler reference\n     @param _address address of the handler\n     @param _name The name of the Handler\n     @param _additionalInformation Additional information about the Product,\n            generally as a JSON object. */\n  function addHandler(address _address, string _name, string _additionalInformation) onlyOwner {\n    Handler memory handler;\n    handler._name = _name;\n    handler._additionalInformation = _additionalInformation;\n\n    addressToHandler[_address] = handler;\n  }\n\n  /* @notice Function to add a product reference\n     @param productAddress address of the product */\n  function storeProductReference(address productAddress) {\n    products.push(productAddress);\n  }\n\n}\n",
  "sourcePath": "/Users/Ray/farmChain/contracts/Database.sol",
  "compiler": {
    "name": "solc",
    "version": "0.4.19+commit.c4cbbb05.Emscripten.clang"
  },
  "schemaVersion": "1.0.1",
  "updatedAt": "2018-02-17T20:34:47.247Z"
}