{
  "contractName": "Product",
  "abi": [
    {
      "constant": true,
      "inputs": [],
      "name": "name",
      "outputs": [
        {
          "name": "",
          "type": "bytes32"
        }
      ],
      "payable": false,
      "stateMutability": "view",
      "type": "function"
    },
    {
      "constant": true,
      "inputs": [
        {
          "name": "",
          "type": "uint256"
        }
      ],
      "name": "childProducts",
      "outputs": [
        {
          "name": "",
          "type": "address"
        }
      ],
      "payable": false,
      "stateMutability": "view",
      "type": "function"
    },
    {
      "constant": true,
      "inputs": [],
      "name": "DATABASE_CONTRACT",
      "outputs": [
        {
          "name": "",
          "type": "address"
        }
      ],
      "payable": false,
      "stateMutability": "view",
      "type": "function"
    },
    {
      "constant": true,
      "inputs": [],
      "name": "PRODUCT_FACTORY",
      "outputs": [
        {
          "name": "",
          "type": "address"
        }
      ],
      "payable": false,
      "stateMutability": "view",
      "type": "function"
    },
    {
      "constant": true,
      "inputs": [],
      "name": "isConsumed",
      "outputs": [
        {
          "name": "",
          "type": "bool"
        }
      ],
      "payable": false,
      "stateMutability": "view",
      "type": "function"
    },
    {
      "constant": true,
      "inputs": [
        {
          "name": "",
          "type": "uint256"
        }
      ],
      "name": "actions",
      "outputs": [
        {
          "name": "handler",
          "type": "address"
        },
        {
          "name": "description",
          "type": "bytes32"
        },
        {
          "name": "lon",
          "type": "int256"
        },
        {
          "name": "lat",
          "type": "int256"
        },
        {
          "name": "timestamp",
          "type": "uint256"
        },
        {
          "name": "blockNumber",
          "type": "uint256"
        }
      ],
      "payable": false,
      "stateMutability": "view",
      "type": "function"
    },
    {
      "constant": true,
      "inputs": [],
      "name": "additionalInformation",
      "outputs": [
        {
          "name": "",
          "type": "bytes32"
        }
      ],
      "payable": false,
      "stateMutability": "view",
      "type": "function"
    },
    {
      "constant": true,
      "inputs": [
        {
          "name": "",
          "type": "uint256"
        }
      ],
      "name": "parentProducts",
      "outputs": [
        {
          "name": "",
          "type": "address"
        }
      ],
      "payable": false,
      "stateMutability": "view",
      "type": "function"
    },
    {
      "inputs": [
        {
          "name": "_name",
          "type": "bytes32"
        },
        {
          "name": "_additionalInformation",
          "type": "bytes32"
        },
        {
          "name": "_parentProducts",
          "type": "address[]"
        },
        {
          "name": "_lon",
          "type": "int256"
        },
        {
          "name": "_lat",
          "type": "int256"
        },
        {
          "name": "_DATABASE_CONTRACT",
          "type": "address"
        },
        {
          "name": "_PRODUCT_FACTORY",
          "type": "address"
        }
      ],
      "payable": false,
      "stateMutability": "nonpayable",
      "type": "constructor"
    },
    {
      "payable": false,
      "stateMutability": "nonpayable",
      "type": "fallback"
    },
    {
      "constant": false,
      "inputs": [
        {
          "name": "description",
          "type": "bytes32"
        },
        {
          "name": "lon",
          "type": "int256"
        },
        {
          "name": "lat",
          "type": "int256"
        },
        {
          "name": "newProductsNames",
          "type": "bytes32[]"
        },
        {
          "name": "newProductsAdditionalInformation",
          "type": "bytes32[]"
        },
        {
          "name": "_consumed",
          "type": "bool"
        }
      ],
      "name": "addAction",
      "outputs": [],
      "payable": false,
      "stateMutability": "nonpayable",
      "type": "function"
    },
    {
      "constant": false,
      "inputs": [
        {
          "name": "otherProducts",
          "type": "address[]"
        },
        {
          "name": "newProductName",
          "type": "bytes32"
        },
        {
          "name": "newProductAdditionalInformation",
          "type": "bytes32"
        },
        {
          "name": "lon",
          "type": "int256"
        },
        {
          "name": "lat",
          "type": "int256"
        }
      ],
      "name": "merge",
      "outputs": [],
      "payable": false,
      "stateMutability": "nonpayable",
      "type": "function"
    },
    {
      "constant": false,
      "inputs": [
        {
          "name": "newProductAddress",
          "type": "address"
        },
        {
          "name": "lon",
          "type": "int256"
        },
        {
          "name": "lat",
          "type": "int256"
        }
      ],
      "name": "collaborateInMerge",
      "outputs": [],
      "payable": false,
      "stateMutability": "nonpayable",
      "type": "function"
    },
    {
      "constant": false,
      "inputs": [],
      "name": "consume",
      "outputs": [],
      "payable": false,
      "stateMutability": "nonpayable",
      "type": "function"
    }
  ],
  "bytecode": "0x606060405234156200001057600080fd5b6040516200169b3803806200169b833981016040528080519060200190919080519060200190919080518201919060200180519060200190919080519060200190919080519060200190919080519060200190919050506200007162000363565b600088600581600019169055506000600460006101000a81548160ff0219169083151502179055508660029080519060200190620000b1929190620003b3565b508760068160001916905550836000806101000a81548173ffffffffffffffffffffffffffffffffffffffff021916908373ffffffffffffffffffffffffffffffffffffffff16021790555082600160006101000a81548173ffffffffffffffffffffffffffffffffffffffff021916908373ffffffffffffffffffffffffffffffffffffffff16021790555033826000019073ffffffffffffffffffffffffffffffffffffffff16908173ffffffffffffffffffffffffffffffffffffffff16815250507f50726f64756374206372656174696f6e0000000000000000000000000000000082602001906000191690816000191681525050858260400181815250508482606001818152505042826080018181525050438260a001818152505060078054806001018281620001e8919062000442565b9160005260206000209060060201600084909190915060008201518160000160006101000a81548173ffffffffffffffffffffffffffffffffffffffff021916908373ffffffffffffffffffffffffffffffffffffffff1602179055506020820151816001019060001916905560408201518160020155606082015181600301556080820151816004015560a082015181600501555050506000809054906101000a900473ffffffffffffffffffffffffffffffffffffffff1690508073ffffffffffffffffffffffffffffffffffffffff1663805593db306040518263ffffffff167c0100000000000000000000000000000000000000000000000000000000028152600401808273ffffffffffffffffffffffffffffffffffffffff1673ffffffffffffffffffffffffffffffffffffffff168152602001915050600060405180830381600087803b15156200033f57600080fd5b6102c65a03f115156200035157600080fd5b5050505050505050505050506200052e565b60c060405190810160405280600073ffffffffffffffffffffffffffffffffffffffff16815260200160008019168152602001600081526020016000815260200160008152602001600081525090565b8280548282559060005260206000209081019282156200042f579160200282015b828111156200042e5782518260006101000a81548173ffffffffffffffffffffffffffffffffffffffff021916908373ffffffffffffffffffffffffffffffffffffffff16021790555091602001919060010190620003d4565b5b5090506200043e919062000477565b5090565b8154818355818115116200047257600602816006028360005260206000209182019101620004719190620004bd565b5b505050565b620004ba91905b80821115620004b657600081816101000a81549073ffffffffffffffffffffffffffffffffffffffff0219169055506001016200047e565b5090565b90565b6200052b91905b808211156200052757600080820160006101000a81549073ffffffffffffffffffffffffffffffffffffffff02191690556001820160009055600282016000905560038201600090556004820160009055600582016000905550600601620004c4565b5090565b90565b61115d806200053e6000396000f3006060604052600436106100ba576000357c0100000000000000000000000000000000000000000000000000000000900463ffffffff16806306fdde03146100ca5780630a430d89146100fb57806310f226df1461015e5780631dedc6f714610222578063301374c61461023757806363ca2ffe1461028c5780637a0d0031146102e157806383240f831461030e57806387b3eaba1461039c578063b3e25665146103cd578063dbab2f9714610418578063f227867f1461049e575b34156100c557600080fd5b600080fd5b34156100d557600080fd5b6100dd610501565b60405180826000191660001916815260200191505060405180910390f35b341561010657600080fd5b61011c6004808035906020019091905050610507565b604051808273ffffffffffffffffffffffffffffffffffffffff1673ffffffffffffffffffffffffffffffffffffffff16815260200191505060405180910390f35b341561016957600080fd5b61022060048080356000191690602001909190803590602001909190803590602001909190803590602001908201803590602001908080602002602001604051908101604052809392919081815260200183836020028082843782019150505050505091908035906020019082018035906020019080806020026020016040519081016040528093929190818152602001838360200280828437820191505050505050919080351515906020019091905050610546565b005b341561022d57600080fd5b6102356108fc565b005b341561024257600080fd5b61024a610933565b604051808273ffffffffffffffffffffffffffffffffffffffff1673ffffffffffffffffffffffffffffffffffffffff16815260200191505060405180910390f35b341561029757600080fd5b61029f610958565b604051808273ffffffffffffffffffffffffffffffffffffffff1673ffffffffffffffffffffffffffffffffffffffff16815260200191505060405180910390f35b34156102ec57600080fd5b6102f461097e565b604051808215151515815260200191505060405180910390f35b341561031957600080fd5b61032f6004808035906020019091905050610991565b604051808773ffffffffffffffffffffffffffffffffffffffff1673ffffffffffffffffffffffffffffffffffffffff1681526020018660001916600019168152602001858152602001848152602001838152602001828152602001965050505050505060405180910390f35b34156103a757600080fd5b6103af6109fc565b60405180826000191660001916815260200191505060405180910390f35b34156103d857600080fd5b610416600480803573ffffffffffffffffffffffffffffffffffffffff16906020019091908035906020019091908035906020019091905050610a02565b005b341561042357600080fd5b61049c6004808035906020019082018035906020019080806020026020016040519081016040528093929190818152602001838360200280828437820191505050505050919080356000191690602001909190803560001916906020019091908035906020019091908035906020019091905050610c44565b005b34156104a957600080fd5b6104bf6004808035906020019091905050610f9d565b604051808273ffffffffffffffffffffffffffffffffffffffff1673ffffffffffffffffffffffffffffffffffffffff16815260200191505060405180910390f35b60055481565b60038181548110151561051657fe5b90600052602060002090016000915054906101000a900473ffffffffffffffffffffffffffffffffffffffff1681565b61054e610fdc565b60008061055961102c565b600460009054906101000a900460ff161561057357600080fd5b8551875114151561058357600080fd5b33846000019073ffffffffffffffffffffffffffffffffffffffff16908173ffffffffffffffffffffffffffffffffffffffff16815250508984602001906000191690816000191681525050888460400181815250508784606001818152505042846080018181525050438460a00181815250506007805480600101828161060b9190611040565b9160005260206000209060060201600086909190915060008201518160000160006101000a81548173ffffffffffffffffffffffffffffffffffffffff021916908373ffffffffffffffffffffffffffffffffffffffff1602179055506020820151816001019060001916905560408201518160020155606082015181600301556080820151816004015560a08201518160050155505050600160009054906101000a900473ffffffffffffffffffffffffffffffffffffffff169250600091505b86518210156108d65760016040518059106106e55750595b908082528060200260200182016040525090503081600081518110151561070857fe5b9060200190602002019073ffffffffffffffffffffffffffffffffffffffff16908173ffffffffffffffffffffffffffffffffffffffff16815250508273ffffffffffffffffffffffffffffffffffffffff16632d806bfd888481518110151561076e57fe5b90602001906020020151888581518110151561078657fe5b90602001906020020151848d8d6000809054906101000a900473ffffffffffffffffffffffffffffffffffffffff166000604051602001526040518763ffffffff167c01000000000000000000000000000000000000000000000000000000000281526004018087600019166000191681526020018660001916600019168152602001806020018581526020018481526020018373ffffffffffffffffffffffffffffffffffffffff1673ffffffffffffffffffffffffffffffffffffffff168152602001828103825286818151815260200191508051906020019060200280838360005b8381101561088657808201518184015260208101905061086b565b50505050905001975050505050505050602060405180830381600087803b15156108af57600080fd5b6102c65a03f115156108c057600080fd5b50505060405180519050508160010191506106cd565b84600460006101000a81548160ff02191690831515021790555050505050505050505050565b600460009054906101000a900460ff161561091657600080fd5b6001600460006101000a81548160ff021916908315150217905550565b6000809054906101000a900473ffffffffffffffffffffffffffffffffffffffff1681565b600160009054906101000a900473ffffffffffffffffffffffffffffffffffffffff1681565b600460009054906101000a900460ff1681565b6007818154811015156109a057fe5b90600052602060002090600602016000915090508060000160009054906101000a900473ffffffffffffffffffffffffffffffffffffffff16908060010154908060020154908060030154908060040154908060050154905086565b60065481565b610a0a610fdc565b600460009054906101000a900460ff1615610a2457600080fd5b60038054806001018281610a389190611072565b9160005260206000209001600086909190916101000a81548173ffffffffffffffffffffffffffffffffffffffff021916908373ffffffffffffffffffffffffffffffffffffffff1602179055505030816000019073ffffffffffffffffffffffffffffffffffffffff16908173ffffffffffffffffffffffffffffffffffffffff16815250507f436f6c6c61626f7261746520696e206d6572676500000000000000000000000081602001906000191690816000191681525050828160400181815250508181606001818152505042816080018181525050438160a001818152505060078054806001018281610b2f9190611040565b9160005260206000209060060201600083909190915060008201518160000160006101000a81548173ffffffffffffffffffffffffffffffffffffffff021916908373ffffffffffffffffffffffffffffffffffffffff1602179055506020820151816001019060001916905560408201518160020155606082015181600301556080820151816004015560a082015181600501555050503073ffffffffffffffffffffffffffffffffffffffff16631dedc6f76040518163ffffffff167c0100000000000000000000000000000000000000000000000000000000028152600401600060405180830381600087803b1515610c2a57600080fd5b6102c65a03f11515610c3b57600080fd5b50505050505050565b600080600080600460009054906101000a900460ff1615610c6457600080fd5b600160009054906101000a900473ffffffffffffffffffffffffffffffffffffffff1693508373ffffffffffffffffffffffffffffffffffffffff16632d806bfd89898c8a8a6000809054906101000a900473ffffffffffffffffffffffffffffffffffffffff166000604051602001526040518763ffffffff167c01000000000000000000000000000000000000000000000000000000000281526004018087600019166000191681526020018660001916600019168152602001806020018581526020018481526020018373ffffffffffffffffffffffffffffffffffffffff1673ffffffffffffffffffffffffffffffffffffffff168152602001828103825286818151815260200191508051906020019060200280838360005b83811015610d9d578082015181840152602081019050610d82565b50505050905001975050505050505050602060405180830381600087803b1515610dc657600080fd5b6102c65a03f11515610dd757600080fd5b5050506040518051905092503073ffffffffffffffffffffffffffffffffffffffff1663b3e256658488886040518463ffffffff167c0100000000000000000000000000000000000000000000000000000000028152600401808473ffffffffffffffffffffffffffffffffffffffff1673ffffffffffffffffffffffffffffffffffffffff1681526020018381526020018281526020019350505050600060405180830381600087803b1515610e8d57600080fd5b6102c65a03f11515610e9e57600080fd5b505050600091505b8851821015610f92578882815181101515610ebd57fe5b9060200190602002015190508073ffffffffffffffffffffffffffffffffffffffff1663b3e256658488886040518463ffffffff167c0100000000000000000000000000000000000000000000000000000000028152600401808473ffffffffffffffffffffffffffffffffffffffff1673ffffffffffffffffffffffffffffffffffffffff1681526020018381526020018281526020019350505050600060405180830381600087803b1515610f7357600080fd5b6102c65a03f11515610f8457600080fd5b505050816001019150610ea6565b505050505050505050565b600281815481101515610fac57fe5b90600052602060002090016000915054906101000a900473ffffffffffffffffffffffffffffffffffffffff1681565b60c060405190810160405280600073ffffffffffffffffffffffffffffffffffffffff16815260200160008019168152602001600081526020016000815260200160008152602001600081525090565b602060405190810160405280600081525090565b81548183558181151161106d5760060281600602836000526020600020918201910161106c919061109e565b5b505050565b81548183558181151161109957818360005260206000209182019101611098919061110c565b5b505050565b61110991905b8082111561110557600080820160006101000a81549073ffffffffffffffffffffffffffffffffffffffff021916905560018201600090556002820160009055600382016000905560048201600090556005820160009055506006016110a4565b5090565b90565b61112e91905b8082111561112a576000816000905550600101611112565b5090565b905600a165627a7a72305820d9c5416797f7e9e6db55e1aa89236992c3ba89afd67b0b647edaca75d90fbd9d0029",
  "source": "pragma solidity ^0.4.7;\n\nimport \"./Database.sol\";\n\n/*\n    Copyright 2017, David Riudor\n\n    This program is free software: you can redistribute it and/or modify\n    it under the terms of the GNU General Public License as published by\n    the Free Software Foundation, either version 3 of the License, or\n    (at your option) any later version.\n\n    This program is distributed in the hope that it will be useful,\n    but WITHOUT ANY WARRANTY; without even the implied warranty of\n    MERCHANTABILITY or FITNESS FOR A PARTICULAR PURPOSE.  See the\n    GNU General Public License for more details.\n\n    You should have received a copy of the GNU General Public License\n    along with this program.  If not, see <http://www.gnu.org/licenses/>.\n */\n\n/* @title Product Contract\n   @author David Riudor\n   @dev This contract represents a product to be tracked in the TODO put name of platform **\n   platform. This product lets the handlers to register actions on it or even combine\n   it with other products. */\n\n /* @dev Constructor for a Product */\ncontract Product {\n  // @dev Reference to its database contract.\n  address public DATABASE_CONTRACT;\n  // @dev Reference to its product factory.\n  address public PRODUCT_FACTORY;\n\n  // @dev This struct represents an action realized by a handler on the product.\n  struct Action {\n    //@dev address of the individual or the organization who realizes the action.\n    address handler;\n    //@dev description of the action.\n    bytes32 description;\n\n    // @dev Longitude x10^10 where the Action is done.\n    int lon;\n    // @dev Latitude x10^10 where the Action is done.\n    int lat;\n\n    // @dev Instant of time when the Action is done.\n    uint timestamp;\n    // @dev Block when the Action is done.\n    uint blockNumber;\n  }\n\n  // @dev if the Product is consumed the transaction can't be done.\n  modifier notConsumed {\n    if (isConsumed)\n      throw;\n    _;\n  }\n\n  // @dev addresses of the products which were used to build this Product.\n  address[] public parentProducts;\n  // @dev addresses of the products which are built by this Product.\n  address[] public childProducts;\n\n  // @dev indicates if a product has been consumed or not.\n  bool public isConsumed;\n\n  // @dev indicates the name of a product.\n  bytes32 public name;\n\n  // @dev Additional information about the Product, generally as a JSON object\n  bytes32 public additionalInformation;\n\n  // @dev all the actions which have been applied to the Product.\n  Action[] public actions;\n\n    /////////////////\n   // Constructor //\n  /////////////////\n\n  /* @notice Constructor to create a Product\n     @param _name The name of the Product\n     @param _additionalInformation Additional information about the Product,\n            generally as a JSON object.\n     @param _parentProducts Addresses of the parent products of the Product.\n     @param _lon Longitude x10^10 where the Product is created.\n     @param _lat Latitude x10^10 where the Product is created.\n     @param _DATABASE_CONTRACT Reference to its database contract\n     @param _PRODUCT_FACTORY Reference to its product factory */\n  function Product(bytes32 _name, bytes32 _additionalInformation, address[] _parentProducts, int _lon, int _lat, address _DATABASE_CONTRACT, address _PRODUCT_FACTORY) {\n    name = _name;\n    isConsumed = false;\n    parentProducts = _parentProducts;\n    additionalInformation = _additionalInformation;\n\n    DATABASE_CONTRACT = _DATABASE_CONTRACT;\n    PRODUCT_FACTORY = _PRODUCT_FACTORY;\n\n    Action memory creation;\n    creation.handler = msg.sender;\n    creation.description = \"Product creation\";\n    creation.lon = _lon;\n    creation.lat = _lat;\n    creation.timestamp = now;\n    creation.blockNumber = block.number;\n\n    actions.push(creation);\n\n    Database database = Database(DATABASE_CONTRACT);\n    database.storeProductReference(this);\n  }\n\n  function () {\n    // If anyone wants to send Ether to this contract, the transaction gets rejected\n    throw;\n  }\n\n  /* @notice Function to add an Action to the product.\n     @param _description The description of the Action.\n     @param _lon Longitude x10^10 where the Action is done.\n     @param _lat Latitude x10^10 where the Action is done.\n     @param _newProductNames In case that this Action creates more products from\n            this Product, the names of the new products should be provided here.\n     @param _newProductsAdditionalInformation In case that this Action creates more products from\n            this Product, the additional information of the new products should be provided here.\n     @param _consumed True if the product becomes consumed after the action. */\n  function addAction(bytes32 description, int lon, int lat, bytes32[] newProductsNames, bytes32[] newProductsAdditionalInformation, bool _consumed) notConsumed {\n    if (newProductsNames.length != newProductsAdditionalInformation.length) throw;\n\n    Action memory action;\n    action.handler = msg.sender;\n    action.description = description;\n    action.lon = lon;\n    action.lat = lat;\n    action.timestamp = now;\n    action.blockNumber = block.number;\n\n    actions.push(action);\n\n    ProductFactory productFactory = ProductFactory(PRODUCT_FACTORY);\n\n    for (uint i = 0; i < newProductsNames.length; ++i) {\n      address[] memory parentProducts = new address[](1);\n      parentProducts[0] = this;\n      productFactory.createProduct(newProductsNames[i], newProductsAdditionalInformation[i], parentProducts, lon, lat, DATABASE_CONTRACT);\n    }\n\n    isConsumed = _consumed;\n  }\n\n  /* @notice Function to merge some products to build a new one.\n     @param otherProducts addresses of the other products to be merged.\n     @param newProductsName Name of the new product resulting of the merge.\n     @param newProductAdditionalInformation Additional information of the new product resulting of the merge.\n     @param _lon Longitude x10^10 where the merge is done.\n     @param _lat Latitude x10^10 where the merge is done. */\n  function merge(address[] otherProducts, bytes32 newProductName, bytes32 newProductAdditionalInformation, int lon, int lat) notConsumed {\n    ProductFactory productFactory = ProductFactory(PRODUCT_FACTORY);\n    address newProduct = productFactory.createProduct(newProductName, newProductAdditionalInformation, otherProducts, lon, lat, DATABASE_CONTRACT);\n\n    this.collaborateInMerge(newProduct, lon, lat);\n    for (uint i = 0; i < otherProducts.length; ++i) {\n      Product prod = Product(otherProducts[i]);\n      prod.collaborateInMerge(newProduct, lon, lat);\n    }\n  }\n\n  /* @notice Function to collaborate in a merge with some products to build a new one.\n     @param newProductsAddress Address of the new product resulting of the merge. */\n  function collaborateInMerge(address newProductAddress, int lon, int lat) notConsumed {\n    childProducts.push(newProductAddress);\n\n    Action memory action;\n    action.handler = this;\n    action.description = \"Collaborate in merge\";\n    action.lon = lon;\n    action.lat = lat;\n    action.timestamp = now;\n    action.blockNumber = block.number;\n\n    actions.push(action);\n\n    this.consume();\n  }\n\n  /* @notice Function to consume the Product */\n  function consume() notConsumed {\n    isConsumed = true;\n  }\n}\n\n/* @title Product Factory Contract\n   @author Andreu Rodíguez i Donaire\n   @dev This contract represents a product factory which represents products to be tracked in\n   the TODO put name of platform ** platform. This product lets the handlers to register actions\n   on it or even combine it with other products. */\ncontract ProductFactory {\n\n      /////////////////\n     // Constructor //\n    /////////////////\n\n    /* @notice Constructor to create a Product Factory */\n    function ProductFactory() {}\n\n    function () {\n      // If anyone wants to send Ether to this contract, the transaction gets rejected\n      throw;\n    }\n\n    /* @notice Function to create a Product\n       @param _name The name of the Product\n       @param _additionalInformation Additional information about the Product,\n              generally as a JSON object.\n       @param _parentProducts Addresses of the parent products of the Product.\n       @param _lon Longitude x10^10 where the Product is created.\n       @param _lat Latitude x10^10 where the Product is created.\n       @param _DATABASE_CONTRACT Reference to its database contract */\n    function createProduct(bytes32 _name, bytes32 _additionalInformation, address[] _parentProducts, int _lon, int _lat, address DATABASE_CONTRACT) returns(address) {\n      return new Product(_name, _additionalInformation, _parentProducts, _lon, _lat, DATABASE_CONTRACT, this);\n    }\n}\n",
  "sourcePath": "/Users/Ray/farmChain/contracts/Product.sol",
  "compiler": {
    "name": "solc",
    "version": "0.4.19+commit.c4cbbb05.Emscripten.clang"
  },
  "schemaVersion": "1.0.1",
  "updatedAt": "2018-02-17T20:34:47.248Z"
}